:020000040800F2
:10000000C0100020A1010008CD0E0008AD0D0008B1
:10001000C90E0008E1090008991D00080000000051
:10002000000000000000000000000000491200086D
:10003000B10A0008000000005D0F000881160008EA
:10004000BB010008BB010008BB010008BB010008A0
:10005000BB010008BB010008BB010008BB01000890
:10006000BB010008BB010008BB010008BB01000880
:10007000BB010008BB010008BB010008BB01000870
:10008000BB010008BB010008BB010008BB01000860
:10009000BB010008BB010008BB010008BB01000850
:1000A000BB010008BB010008BB010008BB01000840
:1000B000BB010008ED160008BB010008BB010008E9
:1000C000BB010008BB010008BB010008BB01000820
:1000D000BB010008BB010008BB010008BB01000810
:1000E000BB010008BB010008BB010008BB01000800
:1000F000BB010008BB010008BB010008BB010008F0
:10010000BB010008BB010008BB010008BB010008DF
:10011000C9190008BB010008BB010008BB010008A9
:10012000BB010008BB010008BB010008BB010008BF
:10013000BB010008BB010008BB010008BB010008AF
:10014000BB010008BB010008BB010008BB0100089F
:10015000BB010008BB010008BB010008BB0100088F
:10016000BB010008BB010008BB010008BB0100087F
:10017000BB010008BB010008BB010008BB0100086F
:10018000BB010008BB010008DFF810D000F0A0FBA5
:10019000004800474D370008AFF30080C010002032
:1001A0000648804706480047FEE7FEE7FEE7FEE711
:1001B000FEE7FEE7FEE7FEE7FEE7FEE7851600083E
:1001C000890100082DE9FE4F804681EA0300C00F37
:1001D0000C46009021F0004123F00045B8EB0200EE
:1001E000A94105D24046214690461C460B46024690
:1001F00023F00040104347D0270DC7F30A00C3F394
:100200000A510290401A019040286BDAC3F31300A0
:1002100040F4801B0098924620B10023D2EB030AE1
:1002200063EB0B0B01985946C0F14002504600F0B9
:10023000F1F906460D4650465946019A00F009FA72
:1002400010EB08006141002487EA115284EAE77349
:100250001A4340D0009A62B3019A012A4FEA07522A
:1002600015DC001B61EB02014FF0004202EA07526D
:10027000CDE90042001C41F5801132462B4600F0CA
:1002800040FA03B0BDE8F08F40462146F9E7001B75
:1002900061EB0201001C41F5801300185B4120183E
:1002A000A2F5001747EB030140EAD570B6196D417E
:1002B00011E06D084FEA360645EAC0754FEA07526D
:1002C000001B61EB0201001C41F5801149084FEA57
:1002D00030000019514132462B4603B0BDE8F04FC3
:1002E00000F000BA0098012240000023D0EB020287
:1002F00063EBE073009821464FEAE074B8EB00002E
:1003000061EB0401E9E783F000435BE781F0004122
:1003100058E72DE9FE4F81EA030404F0004421F080
:10032000004100944FF0000B23F0004350EA010419
:100330005ED052EA03045BD0C3F30A54C1F30A55FA
:100340002C44A4F2F3340194A0FB0254C1F3130132
:1003500041F48011C3F3130343F4801301FB0244FF
:1003600000FB034E840A970A44EA815447EA835704
:10037000A4FB076802958D0A05FB07854FEA932CBD
:1003800004FB0C542705029D4FEA065847EA16372E
:10039000B5EB08056EEB070C870E920E47EA811746
:1003A00042EA8312A7FB0201B6EB0B0164EB0004E7
:1003B0002B0D43EA0C335E1844EB1C50DA465146D1
:1003C000E7FB0201C5F313044FEA0B3343EA14536E
:1003D0004FEA0432019C43EA0603A4F10C040294A0
:1003E000009CCDE900B400F08CF903B0BDE8F08FBB
:1003F00000200146F9E72DE9F04D81EA030404F0FD
:10040000004B21F0004514464FF0000A23F0004154
:1004100050EA050220D054EA01021DD0C5F30A5764
:100420000246C5F31303C1F31300C1F30A5640F4A7
:10043000801543F48013A7EB0608101BD64608F27C
:10044000FD3873EB050002D308F1010801E09218B2
:100450005B41B8F1000F03DA00200146BDE8F08DE2
:1004600000204FF48011064684460EE0171B73EB04
:10047000050705D3121B63EB050306434CEA010C89
:1004800049084FEA300092185B4150EA0107EDD16C
:1004900052EA030012D082EA040083EA050108430D
:1004A00005D0101BAB4106D20122002306E000223A
:1004B0004FF0004302E06FF0010253101AEB060008
:1004C0004CEB085110EB0A0041EB0B01BDE8F04D7D
:1004D00000F008B90EB5C10F80EAE0700844CA0701
:1004E000002140F233438DE80E000A460B4600F02F
:1004F00008F903B000BDC1F30A5210B5C1F31301EE
:1005000040F2FF3341F480119A4201DA002010BD1D
:1005100040F233439A42A2F2334203DC524200F0EB
:1005200088F810BD904010BD00F0004230F000404F
:100530000AD0C10D01F56071C0F3160042EA015105
:10054000C20840071143704700200146704701F080
:10055000004330B421F0004150EA010206D00A0DF8
:10056000A2F56072C1F31301002A02DC30BC002046
:100570007047440F44EAC104C100E01830BC00EBEE
:10058000C25000F078B830B50B460146002020225A
:10059000012409E021FA02F59D4205D303FA02F590
:1005A000491B04FA02F52844151EA2F10102F1DCF0
:1005B00030BD2DE9F05F0546002092469B468846F7
:1005C0000646814640241BE02846414647462246CF
:1005D00000F02FF853465A46C01A914110D31146E5
:1005E0001846224600F016F82D1A67EB01084F4610
:1005F00022460120002100F00DF817EB00094E41C2
:10060000201EA4F10104DFDC484631462A46434659
:10061000BDE8F09F202A04DB203A00FA02F1002016
:1006200070479140C2F1200320FA03F31943904030
:100630007047202A04DB203A21FA02F0002170479B
:1006400021FA02F3D040C2F120029140084319463A
:100650007047202A06DBCB17203A41FA02F043EA22
:10066000E07306E041FA02F3D040C2F1200291406B
:100670000843194670470029A8BF7047401C49002D
:1006800008BF20F00100704710B4B0FA80FC00FAF7
:100690000CF050EA010404BF10BC704749B1CCF122
:1006A000200421FA04F411FA0CF118BF01212143AE
:1006B0000843A3EB0C01CB1D4FEA00614FEA102069
:1006C00042BF002010BC704700EBC350104400290B
:1006D000A4BF10BC7047401C490008BF20F00100B7
:1006E00010BC704710B5141E73F1000408DA401CEA
:1006F00041F1000192185B411A4301D120F0010041
:1007000010BD2DE9F04D92469B4611B1B1FA81F230
:1007100002E0B0FA80F220329046FFF77BFF0446F9
:100720000F4640EA0A0041EA0B0153465A46084385
:1007300013D0114653EA010019D0C8F140025046C7
:10074000FFF777FF05460E46504659464246FFF7EB
:1007500061FF084305D0012004E020463946BDE88A
:10076000F08D0020054346EAE0762C4337430A9893
:100770006305E40AA0EB08000022FD0A44EA47549E
:100780000A3002D500200146E9E701051019694148
:10079000DDE9084500196941BDE8F04DA2E72DE902
:1007A000F04D00231A461B1A8A4103DB0020014644
:1007B000BDE8F08DC1F30A52C1F3130141F4801575
:1007C0004FF0000BD10702D100186D41521E0027D7
:1007D000044640F2FF11384601EB620A3E4680466D
:1007E000024600204FF48011FFF723FFC219714128
:1007F000BB1846EB0100B4EB030C75EB000C04D303
:10080000E41A65EB000517460E46241908F10100AD
:100810006D4180463428E3DDF91946EB0600091BDB
:10082000A84103D24FF0FF32134601E000221346E5
:100830001BEB070046EB0A51BDE8F04DFFF752BF36
:10084000C1F30A52C1F3130140F2FF3341F48011A6
:100850009A4202DA00200146704740F233439A423E
:10086000A2F2334202DC5242FFF7E3BEFFF7D2BEF0
:1008700030B5041E71F1000404DB4FF00044404227
:1008800064EB0101141E73F1000405DB1C464FF0FC
:100890000043524263EB04038B4208BF824230BDE7
:1008A00030B5041E71F1000404DB4FF000444042F7
:1008B00064EB0101141E73F1000405DB1C464FF0CC
:1008C0000043524263EB0403994208BF904230BD9B
:1008D000064C074D06E0E06840F0010394E807008D
:1008E00098471034AC42F6D3FFF752FC5839000851
:1008F000783900080EB540F2334102910021CDE96C
:1009000000110A460B46FFF7FCFE03B000BD70B5B0
:10091000C1F30A5201F000450024C1F3130140F273
:10092000FF3341F480119A4201DA002070BD40F299
:1009300033439A42A2F2334203DC5242FFF779FE7C
:1009400000E090402C43F1D0404270BD2DE9F041D1
:100950002DED028B84B0F0EE408AB0EE608A044642
:100960000D4616461F464FF0000803A8B0EE680A71
:1009700000F0A0F802A8B0EE480A00F09BF82012A0
:100980008DF80400E0B28DF8050045EA060040EA63
:1009900007084FEA28208DF8000008F0FF008DF8C6
:1009A00001000D48007850B96B4601AA02A903A8BE
:1009B00000F052FD08480078401C074908706B465B
:1009C00001AA02A903A800F041FC9FED040A04B0AB
:1009D000BDEC028BBDE8F081180000200000000093
:1009E00000BFFEE710B52DED0C8B4FF440534FF4D4
:1009F000807200210120F7EE000A9FED2B0AFFF71D
:100A0000A5FF012000F098F9B0EE408A274890ED4C
:100A1000000A10EE101A0846FFF786FD41EC1C0B89
:100A2000B0EE4C0AF0EE6C0A01F06AFCB0EE40AA9F
:100A3000F0EE60AA18EE100AFFF776FD41EC1B0BF2
:100A400053EC1A2BFFF765FC41EC190BFFF77FFD08
:100A500008EE900A154890ED000A10EE101A0846AC
:100A6000FFF762FD41EC1C0BB0EE4C0AF0EE6C0A95
:100A700001F0AAFCB0EE40AAF0EE60AA18EE100A4F
:100A8000FFF752FD41EC1B0B53EC1A2BFFF741FC17
:100A900041EC190BFFF75BFD0DEE100AB0EE480AB2
:100AA000BDEC0C8B10BD00000050C347600300205C
:100AB0007047000070B52DED068BB0EE408A0446FD
:100AC00018EE100AFFF730FD41EC1A0B9FED090BF1
:100AD00053EC102BFFF71DFC41EC190BFFF70BFD3E
:100AE0000546280C2070280A6070A570BDEC068BA6
:100AF00070BD0000B30669014C004040F0B50A46E5
:100B000000210023002400BF3DE0012505FA01F388
:100B1000156805EA03049C4234D105684F0003269A
:100B2000BE40B543056015794E00B54006683543B3
:100B300005601579012D02D01579022D16D1856831
:100B40004F000326BE40B543856055794E00B54041
:100B5000866835438560456801268E40B54345600B
:100B6000456896798E40B6B235434560C5684F00FA
:100B70000326BE40B543C560D5794E00B540C66872
:100B80003543C560491C1029BFD3F0BDF0B5002323
:100B900000244D07ED0E02FA05F3CE1000F12005FA
:100BA00055F826504E07F70E0F26BE40B543CF101E
:100BB00000F1200646F82750CE1000F1200555F828
:100BC000265045EA0304CE1000F1200545F82640E2
:100BD000F0BD01837047000010B5002400F0A2FAB8
:100BE00001200E49086002F035FD01200C49C1F8D2
:100BF000AC0202F02FFD06E0641CB4F5FA7F02DDC2
:100C000000F008FB10BD0548803800680028F3D1CB
:100C10000249091F086000BFF4E70000B00241422A
:100C20000000414270B52DED048B05460E46FFF7DE
:100C3000D9FEB0EE408A2E482EA102682F4801F05E
:100C40001FF89FED2F0AB4EEC08AF1EE10FA16DD00
:100C50009FED2B0AC8EE000A10EE904A2046FFF7DF
:100C600063FC41EC190B53EC192B26A1274801F02A
:100C7000ADF8264A26A1214801F002F835E09FEDA3
:100C8000270AB4EEC08AF1EE10FA16DD9FED230AB2
:100C9000C8EE000A10EE904A2046FFF745FC41ECF2
:100CA000190B53EC192B17A1184801F08FF8174AAC
:100CB0001BA1124800F0E4FF17E09FED180AB4EE04
:100CC000C08AF1EE10FA10D218EE100AFFF72CFCD1
:100CD00041EC190B53EC192B0AA10C4801F076F8E2
:100CE0000A4A12A1054800F0CBFFBDEC048B70BD91
:100CF00014000020543A092564090000004C00400B
:100D0000002474492530332E303566002000002041
:100D10002573094D6F686D0D0A00000000007A44CC
:100D20002573094B6F686D0D0A0000002573096F6C
:100D3000686D0D0A0000000070B52DED068B0446AD
:100D40002146174800F08EF800250AE0144800EB11
:100D5000850090ED000A30EE080AB0EE408A681C6B
:100D600085B2A542F2DB00EE104AB8EE400AC8EEAA
:100D7000000AB0EE608A18EE100AFFF7D5FB41ECCE
:100D80001A0B9FED080B53EC102BFFF7C2FA41EC46
:100D9000190BFFF7DCFB00EE100ABDEC068B70BDF3
:100DA000400000204EBBE1951D3A984105A108483E
:100DB00000F066FF04E0002206A1084800F060FF92
:100DC000F9E70000486172644661756C74000000C8
:100DD0000010014025640D0A00000000004C004096
:100DE0001CB50121042000F0BBF84FF4C050009066
:100DF00001208DF8040000208DF8060001208DF8F8
:100E0000070002208DF8050069460448FFF776FECA
:100E10004FF4C0510148FFF7DCFE1CBD0008024042
:100E20001CB50121202000F09BF84FF4C060009019
:100E300002208DF8050001208DF8040000208DF8B7
:100E4000060069460648FFF759FE4FF40071044852
:100E5000FFF7BFFE4FF480610148FFF7BAFE1CBDEB
:100E60000014024010B50246002329E0002021E0D2
:100E700002EB8004D4ED000A441C02EB840494EDE0
:100E8000001AF4EEC10AF1EE10FA11DD02EB800453
:100E900094ED000A441C02EB8404D4ED000A02EB3A
:100EA0008004C4ED000A441C02EB840484ED000AB3
:100EB000441CA0B2CC1A641E8442D9DC5C1CA3B2D0
:100EC0004C1E9C42D2DC10BD00BFFEE77047000004
:100ED00070B5002100230F22C4781CB3174C24687E
:100EE00004F4E064C4F5E064C4F30721C1F1040430
:100EF000E3B20A4144789C40E1B284781440214333
:100F00000C07210E0E4C05786155047804F01F057E
:100F10000124AC4005786D11AD0005F1E025C5F860
:100F2000004109E0047804F01F050124AC40054DA0
:100F30000678761145F8264070BD00000CED00E003
:100F400000E400E080E100E002490143024A116050
:100F5000704700000000FA050CED00E0704700004B
:100F600029B1064A12680243044B1A6004E0034A9E
:100F700012688243014B1A6070470000303802400B
:100F800029B1064A12680243044B1A6004E0034A7E
:100F900012688243014B1A607047000040380240DB
:100FA00029B1064A12680243044B1A6004E0034A5E
:100FB00012688243014B1A607047000044380240B7
:100FC000F0B5002100220024022500260223324F22
:100FD0003F6807F00C0121B1042905D0082937D159
:100FE00005E02E4F076036E02D4F076033E02A4FB3
:100FF0003F1F3F68C7F38056274F3F1F3F6807F0EA
:101000003F036EB1264FB7FBF3F7DFF88CC0ACF1AE
:10101000040CDCF800C0CCF3881C07FB0CF40CE0DB
:101020001E4FB7FBF3F7DFF870C0ACF1040CDCF82F
:1010300000C0CCF3881C07FB0CF4174F3F1F3F6820
:10104000C7F301477F1C7D00B4FBF5F7076002E0A2
:10105000124F076000BF00BF0F4F3F6807F0F0015D
:101060000909104F7A5C0768D74047600A4F3F680C
:1010700007F4E051890A0B4F7A5C4768D7408760D4
:10108000054F3F6807F46041490B064F7A5C47689B
:10109000D740C760F0BD0000083802400024F400CB
:1010A00000127A000000002070B5002400F03AF829
:1010B000002516E000200E490860012002F0CAFA5F
:1010C00001200C49C1F8AC026006040E08487C38C7
:1010D000006808B1601CC4B2012002F0BBFA681CB1
:1010E000C5B2082DE6DB00F00FFA204670BD000007
:1010F000AC0241420000414270B50546284600F06E
:101100001DFA1B2400F06CF8204600F0D5F9FFF71B
:1011100063FDFFF7C9FF044600F0F6F900F07AF826
:10112000204670BD0E48006840F004000C4908607D
:101130000C48006820F040700A49086008460068C2
:10114000086008480C30006820F0407005490C31F8
:1011500008600846006840F0807008607047000032
:1011600030380240000802401B48006840F004008C
:10117000194908601948006820F040701749086054
:101180000846006840F080700860081D006820F480
:101190008050091D0860084600680860081D006846
:1011A00020F04070091D08600846006840F040705B
:1011B0000860081D006820F04070091D086008469E
:1011C0000068086005481430006840F48050034906
:1011D00014310860704700003038024000080240B7
:1011E00010B5FFF7C1FF0120084908600849C1F8A0
:1011F000AC0202F02FFA002004490860012002F03E
:1012000029FA00200249C1F8AC0210BDB0024142E7
:101210000000414210B5FFF7A7FF00200849086011
:101220000849C1F8B002012002F014FA0120044973
:1012300008600449C1F8B00202F00CFA10BD0000C9
:10124000AC02414200004142704700002DE9F04FDE
:101250002DED0A8B87B082468B461C4621780120F3
:10126000884308B1052000E0012008EE900A2078AC
:1012700000F0F000302801D1012000E0002081467C
:10128000207800F00F070025802647F0B001304697
:1012900000F084FD761C6178F0B200F07FFD761CD2
:1012A00047F01001802000F079FD47F020018020F8
:1012B00000F074FDB7E007E08F20FFF71DFF8046C8
:1012C00008F0020000B100E0F6E700BF9420FFF74D
:1012D00013FF04909520FFF70FFF0590DDE904014F
:1012E00001EB002006909620FFF706FF0190972063
:1012F000FFF702FF0290DDE9010101EB00200390FE
:101300000698FFF7E7F841EC1B0B0398FFF7E2F8AC
:1013100041EC1C0BB0EE4B1AF0EE6B1AB0EE4C0A1F
:10132000F0EE6C0A00F0ECFEB0EE40AAF0EE60AA1F
:101330009FED430B53EC102B51EC1A0BFEF7E3FF20
:1013400041EC190BFFF703F93F4941F825000698D6
:10135000B0F5004F0FDB4FF6FF710698484006903E
:10136000069880F4004006900698401C0690069867
:1013700080F4004006900398B0F5004F0FDB4FF665
:10138000FF71039848400390039880F40040039055
:101390000398401C0390039880F4004003902B496D
:1013A000069841F825002A49039841F82500069936
:1013B0004943039A02FB0210FFF78CF841EC1A0B29
:1013C000B0EE4A0AF0EE6A0A01F062F8B0EE409A16
:1013D000F0EE609A51EC190BFFF7B9F808EE100A1D
:1013E000B8EE680A28EE000AF7EE000A80EE801ACE
:1013F00028466D1C174901EB800080ED001A8F20F4
:10140000FFF77AFE804608F0040000B10CE0B9F165
:10141000010F04D12178802000F0C0FC03E0217886
:10142000802000F0BBFC46E700BFA121802000F037
:10143000B5FCB0EE480A07B0BDEC0A8BBDE8F08FF2
:101440004DF1331F3382573F600300208006002098
:10145000A0090020400000202DE9F04706460F4675
:101460009046994699F8000000F00F0AFFF7B8FC83
:101470008225002405E0315DE8B200F08FFC6D1C90
:10148000641C032CF7DB8525002405E0395DE8B2F8
:1014900000F084FC6D1C641C032CF7DB8825002401
:1014A00006E018F80410E8B200F078FC6D1C641C2B
:1014B000022CF6DBBDE8F08770B50446FFF754FE5A
:1014C00000200F490860002516E0E0090C49091DBD
:1014D00008606006040E012002F0BCF801200949F2
:1014E000C1F8AC0202F0B6F80020054908600120FE
:1014F00002F0B0F8681CC5B2082DE6DB70BD000034
:10150000AC0241420000414210B500200949086088
:10151000FFF72AFE01200849C1F8B00202F09AF84C
:1015200001200449086002F095F800200249C1F842
:10153000AC0210BDAC0241420000414270B505460C
:101540001A24FFF74DFE2046FFF7B6FFFFF744FBD6
:10155000B020FFF7B1FFFFF73FFB2846FFF7ACFFD6
:10156000FFF73AFBFFF756FE70BD00000CB50020F8
:10157000019000903448006840F48030324908609F
:1015800000BF3148006800F4003000900198401C12
:101590000190009818B90198B0F5A04FF1D12A48F0
:1015A000006800F4003010B10120009001E000203C
:1015B00000900098012846D123484030006840F050
:1015C00080502149403108602048006840F4404084
:1015D0001E4908601C48083000681B490831086033
:1015E0000846006840F4004008600846006840F47F
:1015F000A05008601648091F0860081F006840F0E6
:101600008070091F086000BF0F48006800F000707C
:101610000028F9D040F205700E4908600A480830E9
:10162000006820F003000849083108600846006897
:1016300040F00200086000BF03480830006800F076
:101640000C000828F8D10CBD0038024000700040A2
:1016500008544007003C0240042808D14FF0E02124
:10166000096941F004014FF0E022116107E04FF0F9
:10167000E021096921F004014FF0E0221161704777
:101680007047000010B51548006840F47000134919
:1016900008601348006840F001001149086000200C
:1016A0000F49083108600E4800680E4908400C498F
:1016B00008600D48091D0860081F006820F480209C
:1016C000091F0860002006490C310860FFF74EFF33
:1016D0004FF0006001498039086010BD88ED00E0DE
:1016E00000380240FFFFF6FE1030002410B5012143
:1016F0000B4800F02AF8012811D10A480068401C64
:101700000849086008460068074990FBF1F201FBB0
:101710001200044908600121014800F007F810BDDB
:10172000000400401400002080380100CA430282F7
:10173000704721B1028842F00102028004E0028871
:101740004FF6FE731A400280704730B50246002003
:1017500000230024158A05EA0103958905EA01049E
:1017600013B10CB1012000E0002030BD1AB1838913
:101770000B43838102E083898B43838170470000A0
:101780002DE9FF4104460D4616461F46DDF8288028
:101790006949601A8C4270D01ADC6849A4EB0100D8
:1017A0008C426CD00ADCB4F1804F4ED064482044A7
:1017B000002852D0B0F5806F71D156E0B0F5806F3F
:1017C00065D0B0F5006F6CD0B0F5406FF4D170E02B
:1017D000B0F5923F21D009DCB0F5806F7AD0B0F53A
:1017E000644F0AD0B0F5684F7CD10EE0B0F5943F5D
:1017F0001BD0B0F5963F75D11FE001210846FFF7D9
:10180000CFFB19208DF800006DE001210220FFF7C9
:10181000C7FB2C208DF8000065E001210804FFF7CC
:10182000BFFB18208DF800005DE001211920FFF7B3
:10183000B7FB2C208DF8000055E001218804FFF74C
:10184000AFFB1A208DF800004DE001210846FFF79C
:1018500097FB1C208DF8000045E001210220FFF7D6
:101860008FFB1D208DF800003DE001210420FFF7D3
:1018700087FB1E208DF8000035E023E0FFE7012103
:101880000820FFF77DFB32208DF800002BE00121BE
:101890001020FFF775FB36208DF8000023E021E0D3
:1018A000FFE701212020FFF76BFB37208DF80000B8
:1018B00019E001214020FFF763FB2B208DF8000089
:1018C00011E007E001218020FFF75AFB2C208DF862
:1018D000000008E001210802FFF752FB2D208DF8DF
:1018E000000000E000BF00BF0295ADF804600020DA
:1018F000ADF80C00ADF8060001A9204600F022F872
:1019000001212046FFF712FF012211462046FFF772
:101910002DFFF8B28DF8010008F0FF008DF80200ED
:1019200001208DF803006846FFF7D2FA0121204616
:10193000FFF7FFFEBDE8FF81001C0040000C0040E7
:1019400000FCFFBF00220288184B98420ED0184BB3
:1019500098420BD0B0F1804F08D0164B984205D07A
:10196000154B984202D0154B984204D14FF68F7315
:101970001A404B881A43124B984207D0114B984299
:1019800004D04FF6FF431A400B891A4302804B687C
:10199000C3620B880385054B984202D0044B9842E2
:1019A00001D18B7A038601238382704700000140B6
:1019B000000401400004004000080040000C00400A
:1019C000001000400014004010B540F225510948B5
:1019D00000F09DF848B1074800F0D5F9C4B240F2D4
:1019E0002551044800F06BF803E0024800F0CBF901
:1019F000C4B210BD004C004010B588B004460121AF
:101A00000846FFF7ADFA0121C804FFF7B9FA08222A
:101A100000212448FFF7BAF8082201212148FFF7E6
:101A2000B5F80320069002208DF81C008DF81D00EB
:101A300000208DF81E0001208DF81F0006A919480E
:101A4000FFF75CF802940020ADF80C00ADF80E0032
:101A5000ADF81000ADF814000C20ADF8120002A98A
:101A6000114800F0A3F801210F4800F037F8402199
:101A70000D4800F01BF834208DF8040003208DF889
:101A800005008DF8060001208DF8070001A8FFF77A
:101A90001FFA012240F22551034800F062F808B015
:101AA00010BD000000000240004C004001F4007234
:101AB000B2F5007F00D100BFCA430280704710B565
:101AC0000022002340F66A14A14200D100BF0A128E
:101AD00001249440A3B2DC43048010BD21B182896B
:101AE00042F40052828104E082894DF6FF731A406D
:101AF0008281704702460020B1F5007F00D100BF0F
:101B000013880B400BB1012000E00020704770B536
:101B10000246002400230025002040F66A16B14248
:101B200000D100BFC1F3421501F01F03012606FAE0
:101B300003F3012D02D19689334006E0022D02D134
:101B4000168A334001E0968A33400C12012606FAC9
:101B500004F41688344013B10CB1012000E00020D9
:101B600070BDF0B50346002400260025002040F695
:101B70006A17B94200D100BF1846C1F3421401F000
:101B80001F06012707FA06F5012C01D10C3004E0ED
:101B9000022C01D1103000E014301AB107682F4335
:101BA000076002E00768AF430760F0BD2DE9FF471B
:101BB00005460E460024A14600BFA046B08900B1EC
:101BC00000BF2C8A24F44054F08804432C82AC8952
:101BD00041F20C608443B08831890843718908431D
:101BE0000443AC81AC8A24F44074B0890443AC82D1
:101BF0006846FFF7E5F92048854202D01F48854234
:101C000002D1DDF80C9001E0DDF80890A88900F41D
:101C1000004040B109EBC90000EB091031684900F0
:101C2000B0FBF1F707E009EBC90000EB09103168E0
:101C30008900B0FBF1F76420B7FBF0F00401200944
:101C4000642101FB1078A88900F4004040B13220E3
:101C500000EBC800B0FBF1F000F00700044308E01F
:101C6000322000EB08106421B0FBF1F000F00F000F
:101C700004432C81BDE8FF8700100140001401409F
:101C80000FB470B586B006460CA8019073E00B98AF
:101C900000785C281CD10B98401C0B9000786E28B3
:101CA00009D072280FD10D21304600F071F80B9841
:101CB000401C0B900BE00A21304600F069F80B98AD
:101CC000401C0B9003E00B98401C0B9000BF4BE0B6
:101CD0000B980078252840D10B98401C0B90007879
:101CE000642818D0732833D1019810C801900BE0F4
:101CF0002178304600F04CF800BF40213046FFF715
:101D0000F9FE0028F9D0641C20780028F0D10B9847
:101D1000401C0B9020E0019820C801900A2202A9E3
:101D2000284601F0C9FC02AC0BE02178304600F0F7
:101D30002FF800BF40213046FFF7DCFE0028F9D025
:101D4000641C20780028F0D10B98401C0B9003E015
:101D50000B98401C0B9000BF06E00B9810F8011B7D
:101D60000B90304600F014F800BF40213046FFF7DA
:101D7000C1FE0028F9D00B980078002887D106B062
:101D800070BC5DF814FB01468888C0F308007047FA
:101D9000C1F308028280704700BFFEE770B50646B7
:101DA0000C461A25FFF71CFA2846FFF785FBFEF7BD
:101DB00013FF3046FFF780FBFEF70EFFE0B2FFF7A0
:101DC0007BFBFEF709FFFFF725FA70BD0FB4084B48
:101DD00010B504A902AA039801F08EF8044602A9DE
:101DE000002001F00CFC204610BC5DF814FB000044
:101DF000FF35000803B401984100009850EAC12063
:101E000018BF04204A0D18BF40F0010040F2FF72D5
:101E1000B2EB515F08BF40F00200012808BF052067
:101E200002B070470000000070B59B482DED020B1A
:101E30002DED068B079D25F00044A04218DC974845
:101E4000844202DC0AD1069840B19DED060BBDEC40
:101E5000068B02B0BDE8704000F042BF002DCCBF41
:101E60009FED8F0B9FED900BBDEC068B02B070BD0C
:101E70008F48A04215DD8F48A042D8BF4FF0FF34F5
:101E800058DD9DED060B51EC100BFFF7B3FF042856
:101E900008BF00F049FF9DED060BBDEC068B02B0BC
:101EA00070BD9DED060B51EC100B01F0F9FBCDE977
:101EB000060181489FED828BA0423CDD8248A04212
:101EC0001FDD00249FED82AB9DED060B53EC1A2B1A
:101ED00051EC100BFEF776F99DED060B41EC190B5A
:101EE00053EC1A2B51EC100BFEF713FA53EC182B92
:101EF000FEF709FA53EC192BFEF77DFACDE906013E
:101F000049E09DED060B012453EC182B51EC100B0E
:101F1000FEF758F99DED060B41EC190B53EC182B0D
:101F200051EC100BFEF7EFF953EC192BFEF763FAA7
:101F3000CDE906012FE06848A0421FDD02249FED95
:101F4000689B9DED060B53EC192B51EC100BFEF723
:101F5000E0F953EC182BFEF735F99DED060B41EC3B
:101F6000180B53EC192B51EC100BFEF7CCF953EC7A
:101F7000182BFEF740FACDE906010CE09DED060BAB
:101F8000032453EC102B9FED580B51EC100BFEF774
:101F900032FACDE906019DED060B53EC102B51EC06
:101FA000100BFEF7B6F941EC180B53EC182BFEF7AB
:101FB000B0F941EC190B4E480621B0EE490AF0EE9B
:101FC000690A784400F078FD53EC182B51EC100BA3
:101FD000FEF79FF941EC180B4648B0EE490AF0EEC7
:101FE000690A0521784400F067FD53EC192B51EC88
:101FF000100BFEF78EF941EC100B51EC180B53EC63
:10200000102B002C0EDAFEF7DDF89DED061B53ECCD
:10201000112BFEF77EF99DED061B53EC112BFEF7FD
:1020200075F935E0FEF7CEF89DED061B53EC112B4C
:10203000FEF76FF941EC100B2F48784400EBC40019
:1020400090ED001B51EC100B53EC112BFEF75BF9DC
:102050009DED061B53EC112BFEF755F941EC100BCF
:102060002648784400EBC40090ED001B51EC100BA7
:1020700053EC112BFEF74AF941EC100B002DA2BFD7
:10208000BDEC068B02B070BD51EC100B81F000412D
:1020900041EC100B01E70000000010440000F07F4D
:1020A000182D4454FB21F93F182D4454FB21F9BF4E
:1020B0000000DC3F0000203E0000F33F0000000075
:1020C000000000000000F03F0000E63F00000000BC
:1020D00000000000000000400080034000000000FD
:1020E000000000000000F83F000000000000F0BF0A
:1020F0003A180000F01700007A17000032170000AD
:1021000070B56F4E2DED040B2DED048B82B0DDF814
:1021100024C0DDE907235C422CF000411C4341EA66
:10212000D474069D22F00040B44205D86C422C4382
:1021300040EAD474B4420BD99DED081B9DED060B0B
:1021400002B0BDEC048B04B0BDE8704000F0D2BD1D
:10215000ACF14054A4F17F641C430BD0022404EA88
:10216000AC7444EAD27405439FED578B9FED582B16
:1021700007D015E09DED060B51EC100B01F044FA71
:1021800042E0002C11BF012C9DED060B02B0BDEC0E
:10219000048B04BF04B070BD022C38D0032C3BD09C
:1021A0000B439FED4D1B9FED4E0B0AD0B14218D152
:1021B000B04209D121F0804120F080400991079080
:1021C0000FE0002A15DA10E0474B7B44002C08BFD3
:1021D00093ED000B0DD0012C10D0022C17D0032C46
:1021E0001AD0B0421DD1002A03DAB0EE410AF0EE57
:1021F000610A02B0BDEC048B04B070BD93ED000B1E
:1022000051EC100B81F0004141EC100BF1E7B0EE06
:10221000480AF0EE680AECE7B0EE420AF0EE620A15
:10222000E7E7401A00159FED329B3C28C8BF8DEDB3
:10223000000B17DCBCF1000FBCBF10F13C0F8DEDA3
:10224000009B0FDB9DED080B53EC102B9DED060B57
:1022500051EC100BFEF7CFF801F022FA01F0D4F99F
:10226000CDE90001B4B1012C10D0022C9FED220B5E
:1022700053EC102B9DED000B51EC100B19D0FEF719
:1022800042F853EC182BFEF73EF8BDE7019880F0BA
:10229000004001909DED000B53EC192B51EC100BFD
:1022A000FEF7E6FA04BF022000F05EFD9DED000B94
:1022B0009FE7FEF728F853EC182BFEF727F8A3E763
:1022C0000000F07F00000000182D4454FB2109405D
:1022D000182D4454FB2109C0182D4454FB21F9BF8B
:1022E000182D4454FB21F93F921600000000000015
:1022F0000000000000000000075C143326A6A13C8B
:1023000010B52F499FED2C1B2DED020B84B00598C5
:1023100020F000408842D8BF9DED040B2DDD2949F7
:10232000884209D1049840B94FF0010000F01CFD2B
:1023300000F0EAFC06B010BD05DB9DED040B00F0DB
:10234000CFFC06B010BD68469DED040B00F0E0F830
:1023500010F0030004BF9DED021B9DED000B0CD09F
:1023600001280ED09DED021B9DED000B022817D019
:10237000012000F01DFC06B010BD00F0E5FA06B02B
:1023800010BD9DED021B9DED000B012000F010FC27
:1023900051EC100B81F0004106B041EC100B10BD68
:1023A00000F0D2FA51EC100B81F0004106B041EC84
:1023B000100B10BD00000000000000000000000035
:1023C000FB21E93F0000F07F10B52F499FED2C1B4A
:1023D0002DED020B84B0059820F000408842DCBF50
:1023E00000209DED040B32DD2849884209D1049874
:1023F00040B94FF0010000F0B7FC00F085FC06B0DA
:1024000010BD05DB9DED040B00F06AFC06B010BDAD
:1024100068469DED040B00F07BF810F0030011D02E
:10242000012818D09DED021B9DED000B02281AD04B
:1024300000F08AFA51EC100B81F0004106B041EC3B
:10244000100B10BD9DED021B9DED000B012000F057
:10245000AFFB06B010BD9DED021B9DED000B00F023
:1024600073FA06B010BD012000F0A2FB51EC100B76
:1024700081F0004106B041EC100B10BD00000000DF
:102480000000000000000000FB21E93F0000F07F99
:1024900000B52DED048BB0EE409AF0EE609A83B05B
:1024A00051EC190BFEF77BF941EC180B18EE100AF2
:1024B00018EE901A8DED008B002818BF01200843FC
:1024C00020F00040C0F17F6000F1E040C00F14D068
:1024D00019EE101A19EE900A8DED009B002918BF15
:1024E0000121084320F00040C0F17F6000F1E0408E
:1024F000C00F04BF012000F037FCB0EE480A03B063
:10250000F0EE680ABDEC048B00BD00000000000086
:102510002DE9F14F04462DED020B2DED088B8AB00D
:102520009FEDE70B80ED020B139EE74826F0004578
:1025300085420ADC9DED120B002084ED000B0AB0F1
:10254000BDEC088B03B0BDE8F08FE0489FEDE0AB39
:102550009FEDE1BBA84247DDE14F9FEDE39B9FED7F
:10256000E48B9DED120B53EC1A2B51EC100B002E4B
:102570001CDDFDF7C8FE41EC100BBD4208D053EC4A
:102580001B2B51EC100BFDF7BEFEC4E900010BE064
:1025900053EC192B51EC100BFDF7B5FE53EC182B37
:1025A000FDF7B1FEC4E900010120C8E7FDF70AFE0E
:1025B00041EC100BBD4208D053EC1B2B51EC100B1F
:1025C000FDF700FEC4E900010BE053EC192B51ECC0
:1025D000100BFDF7F7FD53EC182BFDF7F3FDC4E9E5
:1025E00000014FF0FF30AAE7C348A84279DB9DED18
:1025F000120B51EC100B01F053F841EC180B9FED4E
:10260000C00B53EC102BFDF784FE9FEDBF1B53EC6A
:10261000112BFDF7D7FDFEF77AF90746FDF75AFFB4
:1026200041EC190B53EC1A2BFDF773FE53EC182BEE
:10263000FDF76CFE41EC180B53EC1B2B51EC190B06
:10264000FDF767FEDFF8C8A241EC100B4FEA155802
:102650000125FA4453EC102B51EC180BFDF753FEF7
:10266000032DC4E900013DD0C1F30A5005EB45112B
:10267000A8EB00001139814234DA0AEB051BB0EEF9
:1026800048AA9BED000BF0EE68AA53EC102B51EC1E
:10269000190BFDF73EFE41EC1B0B51EC1A0B53ECF2
:1026A0001B2BFDF730FE41EC180B51EC1A0B53ECD1
:1026B000182BFDF728FE53EC1B2BFDF724FE9BED9A
:1026C000020B41EC1A0B53EC102B51EC190BFDF7DC
:1026D00020FE53EC1A2BFDF716FE41EC100B6D1C7F
:1026E000B8E70EE0002EA8BF3846BFF628AF94ED3D
:1026F000000B51EC100B81F00041C4E9000178425D
:102700001DE7C6F3130040F4801EC6F30A50A0F282
:10271000F530471100F01F05C5F12000DDF848B085
:1027200008900020069007900520EC467949002D7E
:1027300007EB0002794408BF51F8221009D051F884
:10274000223001EB8201AB404A68089922FA01F17C
:102750001943A1FB0E26A1FB0B131A449A4234BF66
:102760000123002303EB06080CEB8003D3E901A649
:102770000E448E4234BF0121002192448A4411B19B
:10278000924502D903E0924501D2012100E00021E7
:10279000C3E901A641444CF82010011EA0F101003C
:1027A000C4DC029800F10050850F0298DDE9036750
:1027B0008000DDF81480FDF78DFE41EC1A0B3046E9
:1027C000FEF798F89FED541B53EC112BFDF7A1FD7C
:1027D00041EC1B0B3846FEF78DF89FED511B53EC77
:1027E000112BFDF796FD41EC180B4046FEF782F8E1
:1027F0009FED4D1B53EC112BFDF78BFD41EC190B9D
:1028000051EC180B53EC192BFDF7DCFC53EC1B2B94
:10281000FDF7D8FC53EC1A2BFDF7D4FCCDE90801E9
:10282000002008909DED080B53EC1A2B51EC100B77
:10283000FDF769FD53EC1B2BFDF765FD53EC182BE1
:10284000FDF761FD53EC192BFDF760FD9FED381B83
:1028500053EC112BFDF75DFD9FED370B41EC180B91
:1028600053EC102B9DED080B51EC100BFDF751FDB7
:1028700053EC182BFDF7A6FC9FED310B41EC180B28
:1028800053EC102B9DED080B51EC100BFDF741FDA7
:1028900053EC182BFDF796FC41EC100B139810F03D
:1028A000004F06D06D4251EC100B81F0004141EC1D
:1028B000100B284684ED000B41E6000000000000EC
:1028C0000000000000000000FB21E93F7CD902402D
:1028D00000004054FB21F93F3163621A61B4D03DDE
:1028E000FB21F93F000000000000601A61B4D03DF8
:1028F0007370032E8A19A33BFB21394100000000AD
:1029000083C8C96D305FE43F000000000000E03F75
:102910001212000060110000000000000000103ED4
:10292000000000000000103C000000000000103A11
:10293000182D4454FB21F93D3326A611460B113CBA
:1029400000000054FB21F93D10B52DED040B2DEDD9
:10295000088B82B0B0EE419AF0EE619A0B9820F0AD
:1029600000449FED4BABB4F1795F11DA9DED0A0B9A
:1029700051EC100BFDF7CBFF002801BFB0EE4A0A67
:10298000F0EE6A0A02B0BDEC088B04BF04B010BDC3
:102990009DED0A0B53EC102B51EC100BFDF7B9FC1D
:1029A00041EC180B3C480621B0EE480AF0EE680AEC
:1029B000784400F081F853EC182B51EC100BFDF724
:1029C000A8FC9DED0A0B41EC1B0B53EC192B51ECB1
:1029D000100BFDF79EFC41EC190B53EC1B2B51EC3B
:1029E000180BFDF796FC53EC192BFDF78CFC9FEDB3
:1029F0002C0B41EC190B53EC102B51EC180BFDF781
:102A000088FC41EC100B2848844210DA53EC192B57
:102A100051EC100BFDF777FC53EC1A2BFDF776FC0D
:102A200041EC100B02B0BDEC088B04B010BD1F4888
:102A3000A042BCBF9FED1E1B8DED001B06DBA4F565
:102A400000100190002000909DED001B51EC100B38
:102A500053EC112BFDF757FC9DED000B41EC180BCF
:102A600053EC102B51EC1A0BFDF74DFC41EC1A0BFB
:102A700053EC192B51EC180BFDF745FC53EC1A2BBA
:102A8000FDF744FC41EC100BCCE700000000000017
:102A9000000000000000F03F7C0E0000000000007D
:102AA000000000000000E03F3333D33F0000E93F67
:102AB000000000000000D23F70B504462DED028BEF
:102AC0004D1E00EBC500B0EE408AF0EE608A90ED3E
:102AD000000B35F0060017D053EC182B51EC100BFF
:102AE000FDF717FC41EC100B6D1E04EBC50090EDDB
:102AF000001B51EC100B53EC112BFDF763FB41EC69
:102B0000100B35F00600E7D1022D36D0042D1CD075
:102B1000062D1CBFBDEC028B70BD53EC182B51EC85
:102B2000100BFDF7F6FB94ED0A1B53EC112BFDF790
:102B300049FB53EC182BFDF7ECFB94ED081B53EC11
:102B4000112BFDF73FFB41EC100B53EC182B51EC14
:102B5000100BFDF7DEFB94ED061B53EC112BFDF77C
:102B600031FB53EC182BFDF7D4FB94ED040B53EC25
:102B7000102BFDF727FB41EC100B53EC182B51ECFD
:102B8000100BFDF7C6FB94ED021B53EC112BFDF768
:102B900019FB53EC182BFDF7BCFB94ED001B53EC19
:102BA000112BFDF70FFBBDEC028B41EC100B70BD40
:102BB00031B504462DED040B2DED0A8BB0EE41BA74
:102BC000F0EE61BA0B989DED0A0B20F00040B0F1D9
:102BD000795F0DDA51EC100BFFF70CF9042808BFF0
:102BE00000F0A2F89DED0A0BBDEC0A8B05B030BDDC
:102BF00053EC102B51EC100BFDF78BFB41EC180B39
:102C00009DED0A0B53EC182B51EC100BFDF781FBDB
:102C100041EC190B2C48B0EE480AF0EE680A052189
:102C20007844FFF749FF9FED2ACBB0EE40AAF0EEC3
:102C300060AA9CB353EC1C2B51EC190BFDF769FBFC
:102C400041EC1C0B53EC1A2B51EC190BFDF761FBFB
:102C50009FED210B41EC190B53EC102B51EC1B0B8E
:102C6000FDF757FB53EC192BFDF74DFB53EC182BDD
:102C7000FDF74FFB53EC1B2BFDF745FB53EC1C2BD7
:102C8000FDF741FB9DED0A1B53EC112BFDF73EFBBD
:102C9000BDEC0A8B05B041EC100B30BDFFE753ECE7
:102CA0001A2B51EC180BFDF734FB53EC1C2BFDF7E2
:102CB00089FA53EC192BFDF72CFB9DED0A1B53EC05
:102CC000112BFDF77FFAE3E70C0D00000000000078
:102CD000495555555555C5BF000000000000E03F5F
:102CE00010B553EC102B51EC100BFDF76BFA41ECC7
:102CF000100B10BD10B553EC112B51EC100BFDF760
:102D000061FA41EC100B10BD9FED050B10B553ECB3
:102D1000102B51EC100BFDF76EFB41EC100B10BDAE
:102D200000000000000000009FED050B10B553EC03
:102D3000102B51EC100BFDF7ECFA41EC100B10BD11
:102D4000000000000000001002E008C8121F08C1C7
:102D5000002AFAD170477047002001E001C1121F1C
:102D6000002AFBD17047000001490860704700004D
:102D70001C0000202DE9FF5F82B00021DDE9043056
:102D8000020DDDF840B0034318D044F61050A2F213
:102D9000FF3242431514119801281FD0A5EB0B00F8
:102DA000401C5FEA000A4FF000064E4FDFF83891F2
:102DB000B046504615D5CAF1000413E0119801241D
:102DC0004AA3012801D16FEA0B010298119AC0E9C8
:102DD0000031C0E9024206B0BDE8F09FCBF100002F
:102DE000DFE704460021404A491842EB0450CDE990
:102DF000001012E0E00707D032463B464046494605
:102E0000FDF787FA8046894632463B46104619460A
:102E1000FDF77FFA06460F466410002CEAD1DDE983
:102E20000401DDE90023BAF1000F06DAFDF771FABB
:102E300042464B46FDF76DFA05E0FDF7DCFA4246E7
:102E40004B46FDF7D8FA04460E460022284BFDF704
:102E500027FD03D84FF0FF30014607E00022254B45
:102E600020463146FDF7AEF9FDF7EAFC102409E0F3
:102E7000002C0ADB0A220023FDF79BFB039B303268
:102E80001A55641E50EA0102F2D1641C039AC4F17F
:102E900011031444119A012A03D0012208430DD1D1
:102EA0000AE0084304D000204FF0110B119072E7A4
:102EB000A3EB0B056D1E0DE05B4504DD4FF000023A
:102EC00005F1010504E003DA4FF00002A5F1010568
:102ED000002AECD002981199C0E90231C0E90045FE
:102EE00079E70000000014400000F03F30000000CF
:102EF0000000F0430000E03F2DE9FF4F95B09A46F7
:102F0000884606460025EEE1252877D1002427468D
:102F1000F94A0121039400E0044316F8013F203BE5
:102F200001FA03F01042F7D130782A2811D06FF05F
:102F30002F033078A0F13002092A16D8039A44F002
:102F4000020402EB820203EB42021044761C03905F
:102F5000EFE758F8042B0392002A03DA504244F4B6
:102F60000054039044F00204761C30782E2816D1C9
:102F700016F8010F44F004042A280DD06FF02F0238
:102F80003078A0F13003092B09D807EB870302EB57
:102F90004303C718761CF3E758F8047B761C307897
:102FA0006C280FD006DC4C2817D068280DD06A2872
:102FB00014D104E0742810D07A280FD10DE044F425
:102FC00000140AE044F4801401E044F440147278E0
:102FD000824202D104F58014761C761C3078662873
:102FE0000BD013DC582877D009DC002875D0452891
:102FF000F6D04628F4D047281AD193E118E0632888
:1030000035D0642879D0652812D18BE1702873D02F
:1030100008DC6728F1D069286FD06E280DD06F28A2
:1030200006D1ACE073282CD0752874D0782853D002
:103030005246179990476D1C54E1C4F30250022880
:1030400009D003280DD0D8F8001004280DD00D6049
:1030500008F1040846E1D8F80010EA17C1E9005267
:10306000F6E7D8F800100D80F2E70D70F0E718F8D9
:10307000041B8DF8001000208DF80100EB460120A4
:1030800003E058F804BB4FF0FF3061074FF0000138
:1030900002D40DE009F101018946B9420FDA8145F8
:1030A000F8DB1BF809100029F4D108E009F101014F
:1030B00089468142FADB1BF809100029F6D10398F2
:1030C0005346A0EB090721463846179A00F080FACC
:1030D000284400EB090507E044E008E10DE01BF897
:1030E000010B524617999047B9F10109F7D253469F
:1030F00021463846179AF2E039E00A21C4F3025219
:103100004FF0000B0091022A06D058F8040BC117AB
:10311000032A09D00AE023E008F1070020F00702A3
:10312000F2E80201904605E000B2C117042A01D17D
:1031300040B2C117002906DA0A460021404261EB7D
:1031400002012D2202E0220504D52B228DF8042055
:10315000012203E0E20701D02022F7E7914657E081
:103160000A2100E010214FF0000B00910BE010212C
:103170004FF0000B44F004040827009103E00820FE
:103180004FF0000B0090C4F30252022A05D058F809
:10319000040B0021032A08D008E008F1070020F002
:1031A0000702F2E80201904603E080B2042A00D14F
:1031B000C0B24FF0000922072AD53278702A07D012
:1031C000DDF800C08CF0100C5CEA0B0C05D00EE0B2
:1031D00040228DF80420012208E050EA010306D0C5
:1031E00030238DF804308DF8052002229146009B93
:1031F00083F0080353EA0B030AD150EA010201D11C
:10320000620705D530228DF804204FF001097F1E9A
:103210003278582A04D039A20C920CAA02920BE000
:103220003BA2F9E75B46009AFDF7C3F90C9B9B5C58
:10323000029A521E0292137050EA0102F2D10298D1
:1032400004A9081A00F1200B600702D524F4803489
:1032500000E001275F4502DDA7EB0B0000E0002046
:1032600000EB0B01009003984944401A0390E003DF
:1032700006D453462146179A039800F0A9F905444D
:10328000002706E001A85246C05D179990476D1CC3
:103290007F1C4F45F6DBE0030CD553462146179AB9
:1032A000039800F095F9054404E030205246179940
:1032B00090476D1C0099481E00900029F5DC08E03D
:1032C0000298029952460078491C0291179990473A
:1032D0006D1CBBF10001ABF1010BF1DC5BE100F017
:1032E00065F90544761C307800287FF40DAE19B0DE
:1032F0002846BDE8F08F0000092801003031323344
:103300003435363738396162636465660000000021
:10331000303132333435363738394142434445460B
:1033200000000000600700D4062708F1070020F025
:103330000700F0E80223804603F0004C5FEA0C002F
:1033400001D097A009E0200501D596A005E0E0078F
:1033500001D095A001E0AFF24C001390307823F03B
:10336000004365280CD006DC452809D046281DD02E
:1033700047287FD13BE0662818D067287AD136E00D
:103380000021112F01DB112000E0781CCDE90001A4
:1033900004A90CA8FFF7EEFCDDE90D010C9A4FF033
:1033A000000B07F10109109200914EE04FF0004030
:1033B0000097CDE9011004A90CA8FFF7DBFCDDE9BB
:1033C0000D020C9B0F994FF0000B91461093009249
:1033D00011B9791C00EB0109B7EB090003D4C0F166
:1033E000FF3B07F10109A9EB0700019042E0012F23
:1033F00000DA01270021112F01DD112000E03846FD
:10340000CDE9000104A90CA8FFF7B4FCDDE90D012A
:103410000C9A00914FF0000BB946109221070FD47F
:10342000009A4A4503DA914601E0A9F10109B9F190
:10343000010F05DD109AA9F10101515C3029F4D08A
:10344000B84202DA10F1040F03DA0121CDE90110CC
:1034500010E0002803DC8344A9EB000102E0411CDA
:10346000494500DD8946A0EB0B00401C01904FF060
:1034700000400290200705D40198484502DB4FF038
:10348000FF30019000208DF84B0002980DF14B07A2
:10349000B0F1004F25D002200C902B200D90029807
:1034A00000280CDA404202902D200D9007E00A21FE
:1034B0000298FDF768F83031029007F8011D0C9969
:1034C000481E0C900029F2DC02980028EFD1791EEA
:1034D0000D980870307800F0200040F0450007F8A3
:1034E000020D11A8C01BC01D02901398007800B1F6
:1034F000012000EB0901019801EBE0710298014401
:103500000398401A401E0390E00306D45346214618
:10351000179A039800F05CF805441398007818B1E6
:103520005246179990476D1CE00323D55346214618
:10353000179A039800F04CF805441BE0BBF1000F0C
:1035400007DB0098584504DD1098179910F80B0018
:1035500001E0179930205246904701980BF1010B7A
:10356000401E05F10105019004D12E205246179905
:1035700090476D1CB9F10001A9F10109DEDC05E0FD
:1035800017F8010B5246179990476D1C0299481E77
:1035900002900029F4DC53462146179A03989EE6D0
:1035A0002D0000002B000000200000002DE9F0415C
:1035B000044600251E461746880404D405E0394613
:1035C0002020B0476D1C641EF9D52846BDE8F08167
:1035D0002DE9F041044600251E469046C80301D55A
:1035E000302700E02027880404D505E0414638460E
:1035F000B0476D1C641EF9D52846BDE8F0810A6805
:10360000531C0B601070704710B541EC100BFEF7A7
:103610000BFC51EC100B10BD10B504466FF004000C
:10362000FEF71AF8E11704EB5171C1F3C701074A1D
:1036300011701046007800EB4001C1EBC0104FF64E
:10364000FF7101EAC0000249088010BD100000208F
:10365000120000200146114A12784A434FF0E0233D
:103660005A6100229A611A46126942F001021A61F7
:1036700000BF4FF0E022106900F001021AB100F41F
:103680008032002AF5D04FF0E022126922F00102C8
:103690004FF0E0231A6100229A6170471000002069
:1036A00082B0CDE9000121F0004001909DED000BBA
:1036B00002B051EC100B7047F0B503460D461646AC
:1036C000002729460A2E03D0002008702846F0BDA6
:1036D00033B9302001F8010B002008702846F6E7C6
:1036E000002B03DA2D2001F8010B5B4242F210722D
:1036F0000DE093FBF2F404B937B104F1300001F8A6
:10370000010B04FB123301270A2092FBF0F2002A7E
:10371000EFDC002008702846D9E700001CB5012125
:103720001020FDF71DFC00208DF8040001208DF80D
:1037300007001C20009002208DF805006946024811
:10374000FDF7DCF91CBD00000010024008B54FF485
:10375000A060FDF7F9FBA820FFF75EFF01200346FC
:10376000532240F2E73100900948FEF709F8FDF7CF
:1037700057FBFFF7D3FFFDF733FB4FF4E130FEF7C4
:103780003BF903E000210846FDF74CFAFAE7000098
:1037900000040040000000004FBB610567ACDD3F46
:1037A000182D4454FB21E93F9BF681D20B73EF3F68
:1037B000182D4454FB21F93FE2652F227F2B7A3CE0
:1037C000075C143326A6813CBDCBF07A8807703C99
:1037D000075C143326A6913CC4EB98999999C9BF0C
:1037E000711623FEC671BCBF6D9A74AFF2B0B3BF41
:1037F0009AFDDE522DDEADBF2F6C6A2C44B4A2BF01
:103800000D5555555555D53FFF8300922449C23F6C
:103810006E204CC5CD45B73F513DD0A0660DB13FA0
:10382000EB0D76244B7BA93F11DA22E33AAD903FB2
:103830004C5555555555A53F7751C1166CC156BFCE
:103840009015CB19A001FA3EAD529C804F7E92BEDE
:10385000C4B1B4BD9EEE213ED43888BEE9FAA8BDFD
:10386000000000000000000000004054FB21F93F70
:103870003163621A61B4D03D0000601A61B4D03D7A
:103880007370032E8A19A33B0000002E8A19A33BF4
:10389000C14920259A837B39000000000000000008
:1038A0006E83F9A22915444ED15727FCC0DD34F5AB
:1038B000999562DB4190433CAB6351FE61C5BBDE31
:1038C0003A6E24B7E0D24D42EA2E49061C92D10945
:1038D0001CEB1DFE3EA729B1F53582E88444BB2EC2
:1038E00026709CE9417E5FB439D69139F43953830F
:1038F0008B5F849C3B28F9BDFF97F81F0F9805DE6E
:103900008B112FEF1F6D0A5ACF7E366DB709CB276B
:10391000663F464F2DEA5F9EC7BA27757BF1E5EB00
:10392000F739073DEA92528AB15FFB6B085D8D1F44
:10393000A6F810111111813FD561C119A0012ABF4C
:103940007DFEB157E31DC73EEB9C2B8AE6E55ABED0
:103950007CD5CF5A3AD9E53D7839000800000020DF
:1039600020000000482D00089839000820000020A1
:10397000A0100000582D0008000000000102030400
:10398000010203040607080900000000000000000F
:0839900000000000000000002F
:040000050800018965
:00000001FF
